{
  "contractName": "Marketplace",
  "abi": [
    {
      "constant": true,
      "inputs": [
        {
          "name": "",
          "type": "address"
        }
      ],
      "name": "storeOwners",
      "outputs": [
        {
          "name": "",
          "type": "bool"
        }
      ],
      "payable": false,
      "stateMutability": "view",
      "type": "function"
    },
    {
      "constant": true,
      "inputs": [
        {
          "name": "",
          "type": "address"
        }
      ],
      "name": "admins",
      "outputs": [
        {
          "name": "",
          "type": "bool"
        }
      ],
      "payable": false,
      "stateMutability": "view",
      "type": "function"
    },
    {
      "constant": true,
      "inputs": [
        {
          "name": "",
          "type": "address"
        },
        {
          "name": "",
          "type": "uint256"
        }
      ],
      "name": "storeAddressesByOwner",
      "outputs": [
        {
          "name": "",
          "type": "address"
        }
      ],
      "payable": false,
      "stateMutability": "view",
      "type": "function"
    },
    {
      "constant": true,
      "inputs": [
        {
          "name": "",
          "type": "uint256"
        }
      ],
      "name": "storeOwnerRequests",
      "outputs": [
        {
          "name": "",
          "type": "address"
        }
      ],
      "payable": false,
      "stateMutability": "view",
      "type": "function"
    },
    {
      "inputs": [],
      "payable": false,
      "stateMutability": "nonpayable",
      "type": "constructor"
    },
    {
      "payable": true,
      "stateMutability": "payable",
      "type": "fallback"
    },
    {
      "anonymous": false,
      "inputs": [
        {
          "indexed": false,
          "name": "storeOwnerRequestAddress",
          "type": "address"
        }
      ],
      "name": "StoreOwnerRequestSent",
      "type": "event"
    },
    {
      "anonymous": false,
      "inputs": [
        {
          "indexed": false,
          "name": "storeOwnerAddress",
          "type": "address"
        }
      ],
      "name": "StoreOwnerAdded",
      "type": "event"
    },
    {
      "anonymous": false,
      "inputs": [
        {
          "indexed": false,
          "name": "",
          "type": "address[]"
        }
      ],
      "name": "StoreOwnerRequestsUpdated",
      "type": "event"
    },
    {
      "anonymous": false,
      "inputs": [
        {
          "indexed": false,
          "name": "owner",
          "type": "address"
        },
        {
          "indexed": false,
          "name": "store",
          "type": "address"
        }
      ],
      "name": "NewStoreCreated",
      "type": "event"
    },
    {
      "constant": true,
      "inputs": [],
      "name": "getStoreAddressesByOwner",
      "outputs": [
        {
          "name": "",
          "type": "address[]"
        }
      ],
      "payable": false,
      "stateMutability": "view",
      "type": "function"
    },
    {
      "constant": false,
      "inputs": [
        {
          "name": "name",
          "type": "string"
        },
        {
          "name": "description",
          "type": "string"
        }
      ],
      "name": "createNewStore",
      "outputs": [],
      "payable": false,
      "stateMutability": "nonpayable",
      "type": "function"
    },
    {
      "constant": true,
      "inputs": [],
      "name": "getUserType",
      "outputs": [
        {
          "name": "",
          "type": "string"
        }
      ],
      "payable": false,
      "stateMutability": "view",
      "type": "function"
    },
    {
      "constant": false,
      "inputs": [],
      "name": "addStoreOwnerRequest",
      "outputs": [],
      "payable": false,
      "stateMutability": "nonpayable",
      "type": "function"
    },
    {
      "constant": false,
      "inputs": [
        {
          "name": "index",
          "type": "uint256"
        },
        {
          "name": "storeOwner",
          "type": "address"
        }
      ],
      "name": "addStoreOwner",
      "outputs": [],
      "payable": false,
      "stateMutability": "nonpayable",
      "type": "function"
    },
    {
      "constant": true,
      "inputs": [],
      "name": "getStoreOwnerRequests",
      "outputs": [
        {
          "name": "",
          "type": "address[]"
        }
      ],
      "payable": false,
      "stateMutability": "view",
      "type": "function"
    },
    {
      "constant": false,
      "inputs": [
        {
          "name": "newAdmin",
          "type": "address"
        }
      ],
      "name": "addAdmin",
      "outputs": [],
      "payable": false,
      "stateMutability": "nonpayable",
      "type": "function"
    },
    {
      "constant": false,
      "inputs": [],
      "name": "withdraw",
      "outputs": [],
      "payable": true,
      "stateMutability": "payable",
      "type": "function"
    }
  ],
  "bytecode": "0x608060405234801561001057600080fd5b5060016000803373ffffffffffffffffffffffffffffffffffffffff1673ffffffffffffffffffffffffffffffffffffffff16815260200190815260200160002060006101000a81548160ff021916908315150217905550612600806100776000396000f3006080604052600436106100ba576000357c0100000000000000000000000000000000000000000000000000000000900463ffffffff168063057cc2a1146100bc5780630a25cced1461011757806324b135d3146101c65780633ccfd60b14610213578063419900771461021d578063429b62e5146102ad578063704802751461030857806374d9037b1461034b57806396549885146103d8578063b9e17a7314610445578063d66e92c2146104b1578063e5348b30146104c8575b005b3480156100c857600080fd5b506100fd600480360381019080803573ffffffffffffffffffffffffffffffffffffffff169060200190929190505050610534565b604051808215151515815260200191505060405180910390f35b34801561012357600080fd5b506101c4600480360381019080803590602001908201803590602001908080601f0160208091040260200160405190810160405280939291908181526020018383808284378201915050505050509192919290803590602001908201803590602001908080601f0160208091040260200160405190810160405280939291908181526020018383808284378201915050505050509192919290505050610554565b005b3480156101d257600080fd5b5061021160048036038101908080359060200190929190803573ffffffffffffffffffffffffffffffffffffffff16906020019092919050505061082c565b005b61021b6109ce565b005b34801561022957600080fd5b50610232610a8c565b6040518080602001828103825283818151815260200191508051906020019080838360005b83811015610272578082015181840152602081019050610257565b50505050905090810190601f16801561029f5780820380516001836020036101000a031916815260200191505b509250505060405180910390f35b3480156102b957600080fd5b506102ee600480360381019080803573ffffffffffffffffffffffffffffffffffffffff169060200190929190505050610bf5565b604051808215151515815260200191505060405180910390f35b34801561031457600080fd5b50610349600480360381019080803573ffffffffffffffffffffffffffffffffffffffff169060200190929190505050610c15565b005b34801561035757600080fd5b50610396600480360381019080803573ffffffffffffffffffffffffffffffffffffffff16906020019092919080359060200190929190505050610ccd565b604051808273ffffffffffffffffffffffffffffffffffffffff1673ffffffffffffffffffffffffffffffffffffffff16815260200191505060405180910390f35b3480156103e457600080fd5b5061040360048036038101908080359060200190929190505050610d1a565b604051808273ffffffffffffffffffffffffffffffffffffffff1673ffffffffffffffffffffffffffffffffffffffff16815260200191505060405180910390f35b34801561045157600080fd5b5061045a610d58565b6040518080602001828103825283818151815260200191508051906020019060200280838360005b8381101561049d578082015181840152602081019050610482565b505050509050019250505060405180910390f35b3480156104bd57600080fd5b506104c6610e23565b005b3480156104d457600080fd5b506104dd610eee565b6040518080602001828103825283818151815260200191508051906020019060200280838360005b83811015610520578082015181840152602081019050610505565b505050509050019250505060405180910390f35b60016020528060005260406000206000915054906101000a900460ff1681565b600060011515600160003373ffffffffffffffffffffffffffffffffffffffff1673ffffffffffffffffffffffffffffffffffffffff16815260200190815260200160002060009054906101000a900460ff1615151415156105b557600080fd5b3383836105c0610f7c565b808473ffffffffffffffffffffffffffffffffffffffff1673ffffffffffffffffffffffffffffffffffffffff1681526020018060200180602001838103835285818151815260200191508051906020019080838360005b83811015610633578082015181840152602081019050610618565b50505050905090810190601f1680156106605780820380516001836020036101000a031916815260200191505b50838103825284818151815260200191508051906020019080838360005b8381101561069957808201518184015260208101905061067e565b50505050905090810190601f1680156106c65780820380516001836020036101000a031916815260200191505b5095505050505050604051809103906000f0801580156106ea573d6000803e3d6000fd5b509050600360003373ffffffffffffffffffffffffffffffffffffffff1673ffffffffffffffffffffffffffffffffffffffff1681526020019081526020016000208190806001815401808255809150509060018203906000526020600020016000909192909190916101000a81548173ffffffffffffffffffffffffffffffffffffffff021916908373ffffffffffffffffffffffffffffffffffffffff160217905550507fdf610879fac4a03d912c46475080cd290bbc0bac06f066f649dc9ccd13bb5d723382604051808373ffffffffffffffffffffffffffffffffffffffff1673ffffffffffffffffffffffffffffffffffffffff1681526020018273ffffffffffffffffffffffffffffffffffffffff1673ffffffffffffffffffffffffffffffffffffffff1681526020019250505060405180910390a1505050565b600115156000803373ffffffffffffffffffffffffffffffffffffffff1673ffffffffffffffffffffffffffffffffffffffff16815260200190815260200160002060009054906101000a900460ff16151514151561088a57600080fd5b8160028054905011151561089d57600080fd5b8073ffffffffffffffffffffffffffffffffffffffff166002838154811015156108c357fe5b9060005260206000200160009054906101000a900473ffffffffffffffffffffffffffffffffffffffff1673ffffffffffffffffffffffffffffffffffffffff1614151561091057600080fd5b60018060008373ffffffffffffffffffffffffffffffffffffffff1673ffffffffffffffffffffffffffffffffffffffff16815260200190815260200160002060006101000a81548160ff0219169083151502179055507fe095b54135d91dfdb849d8f2a1232ed69da67f78cfd33a34a834084d8d037e9a81604051808273ffffffffffffffffffffffffffffffffffffffff1673ffffffffffffffffffffffffffffffffffffffff16815260200191505060405180910390a15050565b600115156000803373ffffffffffffffffffffffffffffffffffffffff1673ffffffffffffffffffffffffffffffffffffffff16815260200190815260200160002060009054906101000a900460ff161515141515610a2c57600080fd5b3373ffffffffffffffffffffffffffffffffffffffff166108fc3073ffffffffffffffffffffffffffffffffffffffff16319081150290604051600060405180830381858888f19350505050158015610a89573d6000803e3d6000fd5b50565b6060600115156000803373ffffffffffffffffffffffffffffffffffffffff1673ffffffffffffffffffffffffffffffffffffffff16815260200190815260200160002060009054906101000a900460ff1615151415610b23576040805190810160405280600581526020017f61646d696e0000000000000000000000000000000000000000000000000000008152509050610bf2565b60011515600160003373ffffffffffffffffffffffffffffffffffffffff1673ffffffffffffffffffffffffffffffffffffffff16815260200190815260200160002060009054906101000a900460ff1615151415610bb9576040805190810160405280600a81526020017f73746f72654f776e6572000000000000000000000000000000000000000000008152509050610bf2565b6040805190810160405280600781526020017f73686f707065720000000000000000000000000000000000000000000000000081525090505b90565b60006020528060005260406000206000915054906101000a900460ff1681565b600115156000803373ffffffffffffffffffffffffffffffffffffffff1673ffffffffffffffffffffffffffffffffffffffff16815260200190815260200160002060009054906101000a900460ff161515141515610c7357600080fd5b60016000808373ffffffffffffffffffffffffffffffffffffffff1673ffffffffffffffffffffffffffffffffffffffff16815260200190815260200160002060006101000a81548160ff02191690831515021790555050565b600360205281600052604060002081815481101515610ce857fe5b906000526020600020016000915091509054906101000a900473ffffffffffffffffffffffffffffffffffffffff1681565b600281815481101515610d2957fe5b906000526020600020016000915054906101000a900473ffffffffffffffffffffffffffffffffffffffff1681565b6060600360003373ffffffffffffffffffffffffffffffffffffffff1673ffffffffffffffffffffffffffffffffffffffff168152602001908152602001600020805480602002602001604051908101604052809291908181526020018280548015610e1957602002820191906000526020600020905b8160009054906101000a900473ffffffffffffffffffffffffffffffffffffffff1673ffffffffffffffffffffffffffffffffffffffff1681526020019060010190808311610dcf575b5050505050905090565b60023390806001815401808255809150509060018203906000526020600020016000909192909190916101000a81548173ffffffffffffffffffffffffffffffffffffffff021916908373ffffffffffffffffffffffffffffffffffffffff160217905550507fe8d8416cffa981f4862d25c6d4fbf348eeb69b890f5c2c4028ad5a04ade78b7033604051808273ffffffffffffffffffffffffffffffffffffffff1673ffffffffffffffffffffffffffffffffffffffff16815260200191505060405180910390a1565b60606002805480602002602001604051908101604052809291908181526020018280548015610f7257602002820191906000526020600020905b8160009054906101000a900473ffffffffffffffffffffffffffffffffffffffff1673ffffffffffffffffffffffffffffffffffffffff1681526020019060010190808311610f28575b5050505050905090565b60405161164880610f8d83390190560060806040526000600560006101000a81548160ff0219169083151502179055503480156200002c57600080fd5b5060405162001648380380620016488339810180604052810190808051906020019092919080518201929190602001805182019291905050508160208151111515156200007857600080fd5b8160208151111515156200008b57600080fd5b846000806101000a81548173ffffffffffffffffffffffffffffffffffffffff021916908373ffffffffffffffffffffffffffffffffffffffff1602179055508360019080519060200190620000e392919062000110565b508260029080519060200190620000fc92919062000110565b5060006004819055505050505050620001bf565b828054600181600116156101000203166002900490600052602060002090601f016020900481019282601f106200015357805160ff191683800117855562000184565b8280016001018555821562000184579182015b828111156200018357825182559160200191906001019062000166565b5b50905062000193919062000197565b5090565b620001bc91905b80821115620001b85760008160009055506001016200019e565b5090565b90565b61147980620001cf6000396000f3006080604052600436106100af576000357c0100000000000000000000000000000000000000000000000000000000900463ffffffff16806306fdde03146100b15780631385d24c146101415780633ccfd60b146101585780635e00ae991461016f57806360e9b7b7146101a657806363faebd4146101d15780637284e416146102f857806375f12b211461038857806388f03a04146103b75780638da5cb5b14610470578063a0440426146104c7575b005b3480156100bd57600080fd5b506100c66104f1565b6040518080602001828103825283818151815260200191508051906020019080838360005b838110156101065780820151818401526020810190506100eb565b50505050905090810190601f1680156101335780820380516001836020036101000a031916815260200191505b509250505060405180910390f35b34801561014d57600080fd5b5061015661058f565b005b34801561016457600080fd5b5061016d6106ef565b005b34801561017b57600080fd5b506101a4600480360381019080803590602001909291908035906020019092919050505061085a565b005b3480156101b257600080fd5b506101bb610a50565b6040518082815260200191505060405180910390f35b3480156101dd57600080fd5b506101fc60048036038101908080359060200190929190505050610a56565b604051808681526020018581526020018481526020018060200180602001838103835285818151815260200191508051906020019080838360005b83811015610252578082015181840152602081019050610237565b50505050905090810190601f16801561027f5780820380516001836020036101000a031916815260200191505b50838103825284818151815260200191508051906020019080838360005b838110156102b857808201518184015260208101905061029d565b50505050905090810190601f1680156102e55780820380516001836020036101000a031916815260200191505b5097505050505050505060405180910390f35b34801561030457600080fd5b5061030d610bbc565b6040518080602001828103825283818151815260200191508051906020019080838360005b8381101561034d578082015181840152602081019050610332565b50505050905090810190601f16801561037a5780820380516001836020036101000a031916815260200191505b509250505060405180910390f35b34801561039457600080fd5b5061039d610c5a565b604051808215151515815260200191505060405180910390f35b3480156103c357600080fd5b5061046e600480360381019080803590602001908201803590602001908080601f0160208091040260200160405190810160405280939291908181526020018383808284378201915050505050509192919290803590602001908201803590602001908080601f016020809104026020016040519081016040528093929190818152602001838380828437820191505050505050919291929080359060200190929190505050610c6d565b005b34801561047c57600080fd5b50610485610f8d565b604051808273ffffffffffffffffffffffffffffffffffffffff1673ffffffffffffffffffffffffffffffffffffffff16815260200191505060405180910390f35b6104ef6004803603810190808035906020019092919080359060200190929190505050610fb2565b005b60018054600181600116156101000203166002900480601f0160208091040260200160405190810160405280929190818152602001828054600181600116156101000203166002900480156105875780601f1061055c57610100808354040283529160200191610587565b820191906000526020600020905b81548152906001019060200180831161056a57829003601f168201915b505050505081565b6000809054906101000a900473ffffffffffffffffffffffffffffffffffffffff1673ffffffffffffffffffffffffffffffffffffffff163373ffffffffffffffffffffffffffffffffffffffff16141515610679576040517f08c379a00000000000000000000000000000000000000000000000000000000081526004018080602001828103825260358152602001807f5468697320616374696f6e2063616e206f6e6c7920626520706572666f726d6581526020017f64206279207468652073746f7265206f776e65722e000000000000000000000081525060400191505060405180910390fd5b600560009054906101000a900460ff1615600560006101000a81548160ff0219169083151502179055507fbbe2df23d8e4c62058ef6f54ed03e99b5f38d650d80f449e5c3dff7eb5fc3c90600560009054906101000a900460ff16604051808215151515815260200191505060405180910390a1565b6000809054906101000a900473ffffffffffffffffffffffffffffffffffffffff1673ffffffffffffffffffffffffffffffffffffffff163373ffffffffffffffffffffffffffffffffffffffff161415156107d9576040517f08c379a00000000000000000000000000000000000000000000000000000000081526004018080602001828103825260358152602001807f5468697320616374696f6e2063616e206f6e6c7920626520706572666f726d6581526020017f64206279207468652073746f7265206f776e65722e000000000000000000000081525060400191505060405180910390fd5b6000809054906101000a900473ffffffffffffffffffffffffffffffffffffffff1673ffffffffffffffffffffffffffffffffffffffff166108fc3073ffffffffffffffffffffffffffffffffffffffff16319081150290604051600060405180830381858888f19350505050158015610857573d6000803e3d6000fd5b50565b816000610872826004546112f890919063ffffffff16565b1015151561090e576040517f08c379a00000000000000000000000000000000000000000000000000000000081526004018080602001828103825260278152602001807f54686973206974656d20646f6573206e6f7420657869737420696e207468697381526020017f2073746f72652e0000000000000000000000000000000000000000000000000081525060400191505060405180910390fd5b6000809054906101000a900473ffffffffffffffffffffffffffffffffffffffff1673ffffffffffffffffffffffffffffffffffffffff163373ffffffffffffffffffffffffffffffffffffffff161415156109f8576040517f08c379a00000000000000000000000000000000000000000000000000000000081526004018080602001828103825260358152602001807f5468697320616374696f6e2063616e206f6e6c7920626520706572666f726d6581526020017f64206279207468652073746f7265206f776e65722e000000000000000000000081525060400191505060405180910390fd5b816003600085815260200190815260200160002060010181905550827f2ed03aaee7348d9d0c7122fad9bd3e92af7a2581ea25366a7355d4d20c62d97d836040518082815260200191505060405180910390a2505050565b60045481565b6003602052806000526040600020600091509050806000015490806001015490806002015490806003018054600181600116156101000203166002900480601f016020809104026020016040519081016040528092919081815260200182805460018160011615610100020316600290048015610b145780601f10610ae957610100808354040283529160200191610b14565b820191906000526020600020905b815481529060010190602001808311610af757829003601f168201915b505050505090806004018054600181600116156101000203166002900480601f016020809104026020016040519081016040528092919081815260200182805460018160011615610100020316600290048015610bb25780601f10610b8757610100808354040283529160200191610bb2565b820191906000526020600020905b815481529060010190602001808311610b9557829003601f168201915b5050505050905085565b60028054600181600116156101000203166002900480601f016020809104026020016040519081016040528092919081815260200182805460018160011615610100020316600290048015610c525780601f10610c2757610100808354040283529160200191610c52565b820191906000526020600020905b815481529060010190602001808311610c3557829003601f168201915b505050505081565b600560009054906101000a900460ff1681565b610c75611378565b6000809054906101000a900473ffffffffffffffffffffffffffffffffffffffff1673ffffffffffffffffffffffffffffffffffffffff163373ffffffffffffffffffffffffffffffffffffffff16141515610d5f576040517f08c379a00000000000000000000000000000000000000000000000000000000081526004018080602001828103825260358152602001807f5468697320616374696f6e2063616e206f6e6c7920626520706572666f726d6581526020017f64206279207468652073746f7265206f776e65722e000000000000000000000081525060400191505060405180910390fd5b836020815111151515610d7157600080fd5b836020815111151515610d8357600080fd5b60a060405190810160405280610da5600160045461131990919063ffffffff16565b8152602001600081526020018581526020018781526020018681525092508260036000610dde600160045461131990919063ffffffff16565b81526020019081526020016000206000820151816000015560208201518160010155604082015181600201556060820151816003019080519060200190610e269291906113a8565b506080820151816004019080519060200190610e439291906113a8565b50905050610e5d600160045461131990919063ffffffff16565b60048190555082600001517f4e567c1c0c81dc187c8338cf00f9d1643ddb73bb113952f87c1d33276657f4b4846060015185608001518660400151604051808060200180602001848152602001838103835286818151815260200191508051906020019080838360005b83811015610ee2578082015181840152602081019050610ec7565b50505050905090810190601f168015610f0f5780820380516001836020036101000a031916815260200191505b50838103825285818151815260200191508051906020019080838360005b83811015610f48578082015181840152602081019050610f2d565b50505050905090810190601f168015610f755780820380516001836020036101000a031916815260200191505b509550505050505060405180910390a2505050505050565b6000809054906101000a900473ffffffffffffffffffffffffffffffffffffffff1681565b816000610fca826004546112f890919063ffffffff16565b10151515611066576040517f08c379a00000000000000000000000000000000000000000000000000000000081526004018080602001828103825260278152602001807f54686973206974656d20646f6573206e6f7420657869737420696e207468697381526020017f2073746f72652e0000000000000000000000000000000000000000000000000081525060400191505060405180910390fd5b828260006110938260036000868152602001908152602001600020600101546112f890919063ffffffff16565b10151515611109576040517f08c379a000000000000000000000000000000000000000000000000000000000815260040180806020018281038252601a8152602001807f4e6f7420656e6f75676820696e76656e746f7279206c6566742e00000000000081525060200191505060405180910390fd5b848461113481600360008581526020019081526020016000206002015461133a90919063ffffffff16565b34101515156111ab576040517f08c379a000000000000000000000000000000000000000000000000000000000815260040180806020018281038252601a8152602001807f4e6f7420656e6f7567682045746865722070726f76696465642e00000000000081525060200191505060405180910390fd5b600560009054906101000a900460ff16151561123d576111ea86600360008a8152602001908152602001600020600101546112f890919063ffffffff16565b6003600089815260200190815260200160002060010181905550867f7a53680a44b794c8ef9f1d38676e09a22df8a9bae6949d9da9d275b78d8d74d6876040518082815260200191505060405180910390a25b61126681600360008581526020019081526020016000206002015461133a90919063ffffffff16565b3411156112ef573373ffffffffffffffffffffffffffffffffffffffff166108fc6112c26112b384600360008881526020019081526020016000206002015461133a90919063ffffffff16565b346112f890919063ffffffff16565b9081150290604051600060405180830381858888f193505050501580156112ed573d6000803e3d6000fd5b505b50505050505050565b60008083831115151561130a57600080fd5b82840390508091505092915050565b600080828401905083811015151561133057600080fd5b8091505092915050565b600080600084141561134f5760009150611371565b828402905082848281151561136057fe5b0414151561136d57600080fd5b8091505b5092915050565b60a06040519081016040528060008152602001600081526020016000815260200160608152602001606081525090565b828054600181600116156101000203166002900490600052602060002090601f016020900481019282601f106113e957805160ff1916838001178555611417565b82800160010185558215611417579182015b828111156114165782518255916020019190600101906113fb565b5b5090506114249190611428565b5090565b61144a91905b8082111561144657600081600090555060010161142e565b5090565b905600a165627a7a72305820d396cb2f152f8eb4d7579ef5f69100696e7e382523f378cb90b9f840a9a7842c0029a165627a7a723058200ccf05b08d0eeaf79b7d6a4919be87d1fb6cc54e9dea719be41b7454e60d2aad0029",
  "source": "pragma solidity >= 0.4.21 < 0.6.0;\r\n\r\nimport \"./Store.sol\";\r\n\r\n/** @title Marketplace contract. */\r\ncontract Marketplace {\r\n    mapping(address => bool) public admins;\r\n    mapping(address => bool) public storeOwners;\r\n    address[] public storeOwnerRequests;\r\n    mapping(address => address[]) public storeAddressesByOwner;\r\n\r\n    event StoreOwnerRequestSent(address storeOwnerRequestAddress);\r\n    event StoreOwnerAdded(address storeOwnerAddress);\r\n    event StoreOwnerRequestsUpdated(address[]);\r\n    event NewStoreCreated(address owner, address store);\r\n\r\n    modifier isAdmin() {\r\n        require(admins[msg.sender] == true);\r\n        _;\r\n    }\r\n\r\n    modifier isStoreOwner() {\r\n        require(storeOwners[msg.sender] == true);\r\n        _;\r\n    }\r\n\r\n    constructor() public {\r\n        admins[msg.sender] = true;\r\n    }\r\n\r\n    /** @dev Gets a list of store contract addresses that the msg.sender is the owner of.\r\n    * @return The list of store contract addresses.\r\n    */\r\n    function getStoreAddressesByOwner() public view returns(address[] memory) {\r\n        return storeAddressesByOwner[msg.sender];\r\n    }\r\n\r\n    /** @dev Generates a new store contract with msg.sender as the owner.\r\n    * @param name The name of the store.\r\n    * @param description The description of the store.\r\n    */\r\n    function createNewStore(string memory name, string memory description) public isStoreOwner {\r\n        Store newStore = new Store(msg.sender, name, description);\r\n        storeAddressesByOwner[msg.sender].push(newStore);\r\n        emit NewStoreCreated(msg.sender, newStore);\r\n    }\r\n\r\n    /** @dev Figures out what type of user msg.sender is.\r\n    * @return A string indicating what type of user msg.sender is.\r\n    */\r\n    function getUserType() public view returns(string memory) {\r\n        if (admins[msg.sender] == true) {\r\n            return \"admin\";\r\n      } else if (storeOwners[msg.sender] == true) {\r\n            return \"storeOwner\";\r\n      } else {\r\n            return \"shopper\";\r\n      }\r\n    }\r\n\r\n    /** @dev Adds a request for msg.sender to become a store owner (pending admin approval).\r\n    */\r\n    function addStoreOwnerRequest() public {\r\n        storeOwnerRequests.push(msg.sender);\r\n        emit StoreOwnerRequestSent(msg.sender);\r\n    }\r\n\r\n    /** @dev Adds a new store owner from the list of requests.\r\n    * @param index The index in the list of requests of the approved store owner.\r\n    * @param storeOwner The address of the store owner being approved.\r\n    */\r\n    function addStoreOwner(uint index, address storeOwner) public isAdmin {\r\n        require(storeOwnerRequests.length > index);\r\n        require(storeOwnerRequests[index] == storeOwner);\r\n        storeOwners[storeOwner] = true;\r\n\r\n        emit StoreOwnerAdded(storeOwner);\r\n    }\r\n\r\n    /** @dev Gets all the store owner requests.\r\n    * @return A list of all the addresses of the open requests.\r\n    */\r\n    function getStoreOwnerRequests() public view returns(address[] memory) {\r\n        return storeOwnerRequests;\r\n    }\r\n\r\n    /** @dev Adds a new admin to the marketplace.\r\n    * @param newAdmin Address of the new admin to add.\r\n    */\r\n    function addAdmin(address newAdmin) public isAdmin {\r\n        admins[newAdmin] = true;\r\n    }\r\n\r\n    /** @dev Admins can withdraw any funds sent to the contract.\r\n    */\r\n    function withdraw() public payable isAdmin {\r\n        msg.sender.transfer(address(this).balance);\r\n    }\r\n\r\n    /** @dev Default payable function.\r\n    */\r\n    function () public payable {}\r\n \r\n  }",
  "sourcePath": "C:\\Users\\Nikhil\\Documents\\GitHub\\ConsensysAcademy-Final-Project\\contracts\\Marketplace.sol",
  "compiler": {
    "name": "solc",
    "version": "0.4.25+commit.59dbf8f1.Emscripten.clang"
  },
  "schemaVersion": "2.0.2",
  "updatedAt": "2019-01-24T04:49:46.785Z"
}