{
  "contractName": "Store",
  "abi": [
    {
      "constant": true,
      "inputs": [],
      "name": "name",
      "outputs": [
        {
          "name": "",
          "type": "string"
        }
      ],
      "payable": false,
      "stateMutability": "view",
      "type": "function"
    },
    {
      "constant": true,
      "inputs": [],
      "name": "newestProductSku",
      "outputs": [
        {
          "name": "",
          "type": "uint256"
        }
      ],
      "payable": false,
      "stateMutability": "view",
      "type": "function"
    },
    {
      "constant": true,
      "inputs": [
        {
          "name": "",
          "type": "uint256"
        }
      ],
      "name": "productsBySku",
      "outputs": [
        {
          "name": "sku",
          "type": "uint256"
        },
        {
          "name": "inventoryCount",
          "type": "uint256"
        },
        {
          "name": "price",
          "type": "uint256"
        },
        {
          "name": "name",
          "type": "string"
        },
        {
          "name": "description",
          "type": "string"
        }
      ],
      "payable": false,
      "stateMutability": "view",
      "type": "function"
    },
    {
      "constant": true,
      "inputs": [],
      "name": "description",
      "outputs": [
        {
          "name": "",
          "type": "string"
        }
      ],
      "payable": false,
      "stateMutability": "view",
      "type": "function"
    },
    {
      "constant": true,
      "inputs": [],
      "name": "stopped",
      "outputs": [
        {
          "name": "",
          "type": "bool"
        }
      ],
      "payable": false,
      "stateMutability": "view",
      "type": "function"
    },
    {
      "constant": true,
      "inputs": [],
      "name": "owner",
      "outputs": [
        {
          "name": "",
          "type": "address"
        }
      ],
      "payable": false,
      "stateMutability": "view",
      "type": "function"
    },
    {
      "inputs": [
        {
          "name": "sender",
          "type": "address"
        },
        {
          "name": "storeName",
          "type": "string"
        },
        {
          "name": "storeDescription",
          "type": "string"
        }
      ],
      "payable": false,
      "stateMutability": "nonpayable",
      "type": "constructor"
    },
    {
      "payable": true,
      "stateMutability": "payable",
      "type": "fallback"
    },
    {
      "anonymous": false,
      "inputs": [
        {
          "indexed": false,
          "name": "name",
          "type": "string"
        },
        {
          "indexed": false,
          "name": "description",
          "type": "string"
        },
        {
          "indexed": true,
          "name": "sku",
          "type": "uint256"
        },
        {
          "indexed": false,
          "name": "price",
          "type": "uint256"
        }
      ],
      "name": "NewProductAdded",
      "type": "event"
    },
    {
      "anonymous": false,
      "inputs": [
        {
          "indexed": true,
          "name": "sku",
          "type": "uint256"
        },
        {
          "indexed": false,
          "name": "newInventoryCount",
          "type": "uint256"
        }
      ],
      "name": "InventoryCountUpdated",
      "type": "event"
    },
    {
      "anonymous": false,
      "inputs": [
        {
          "indexed": true,
          "name": "sku",
          "type": "uint256"
        },
        {
          "indexed": false,
          "name": "quantity",
          "type": "uint256"
        }
      ],
      "name": "PurchaseMade",
      "type": "event"
    },
    {
      "anonymous": false,
      "inputs": [
        {
          "indexed": false,
          "name": "isStopped",
          "type": "bool"
        }
      ],
      "name": "ContractStateToggled",
      "type": "event"
    },
    {
      "constant": false,
      "inputs": [],
      "name": "toggleContractActive",
      "outputs": [],
      "payable": false,
      "stateMutability": "nonpayable",
      "type": "function"
    },
    {
      "constant": false,
      "inputs": [],
      "name": "withdraw",
      "outputs": [],
      "payable": false,
      "stateMutability": "nonpayable",
      "type": "function"
    },
    {
      "constant": false,
      "inputs": [
        {
          "name": "newProductName",
          "type": "string"
        },
        {
          "name": "newProductDescription",
          "type": "string"
        },
        {
          "name": "newProductPrice",
          "type": "uint256"
        }
      ],
      "name": "addNewProduct",
      "outputs": [],
      "payable": false,
      "stateMutability": "nonpayable",
      "type": "function"
    },
    {
      "constant": false,
      "inputs": [
        {
          "name": "sku",
          "type": "uint256"
        },
        {
          "name": "newInventoryCount",
          "type": "uint256"
        }
      ],
      "name": "updateInventoryCount",
      "outputs": [],
      "payable": false,
      "stateMutability": "nonpayable",
      "type": "function"
    },
    {
      "constant": false,
      "inputs": [
        {
          "name": "sku",
          "type": "uint256"
        },
        {
          "name": "quantity",
          "type": "uint256"
        }
      ],
      "name": "purchaseProduct",
      "outputs": [],
      "payable": true,
      "stateMutability": "payable",
      "type": "function"
    }
  ],
  "bytecode": "0x60806040526000600560006101000a81548160ff0219169083151502179055503480156200002c57600080fd5b5060405162001648380380620016488339810180604052810190808051906020019092919080518201929190602001805182019291905050508160208151111515156200007857600080fd5b8160208151111515156200008b57600080fd5b846000806101000a81548173ffffffffffffffffffffffffffffffffffffffff021916908373ffffffffffffffffffffffffffffffffffffffff1602179055508360019080519060200190620000e392919062000110565b508260029080519060200190620000fc92919062000110565b5060006004819055505050505050620001bf565b828054600181600116156101000203166002900490600052602060002090601f016020900481019282601f106200015357805160ff191683800117855562000184565b8280016001018555821562000184579182015b828111156200018357825182559160200191906001019062000166565b5b50905062000193919062000197565b5090565b620001bc91905b80821115620001b85760008160009055506001016200019e565b5090565b90565b61147980620001cf6000396000f3006080604052600436106100af576000357c0100000000000000000000000000000000000000000000000000000000900463ffffffff16806306fdde03146100b15780631385d24c146101415780633ccfd60b146101585780635e00ae991461016f57806360e9b7b7146101a657806363faebd4146101d15780637284e416146102f857806375f12b211461038857806388f03a04146103b75780638da5cb5b14610470578063a0440426146104c7575b005b3480156100bd57600080fd5b506100c66104f1565b6040518080602001828103825283818151815260200191508051906020019080838360005b838110156101065780820151818401526020810190506100eb565b50505050905090810190601f1680156101335780820380516001836020036101000a031916815260200191505b509250505060405180910390f35b34801561014d57600080fd5b5061015661058f565b005b34801561016457600080fd5b5061016d6106ef565b005b34801561017b57600080fd5b506101a4600480360381019080803590602001909291908035906020019092919050505061085a565b005b3480156101b257600080fd5b506101bb610a50565b6040518082815260200191505060405180910390f35b3480156101dd57600080fd5b506101fc60048036038101908080359060200190929190505050610a56565b604051808681526020018581526020018481526020018060200180602001838103835285818151815260200191508051906020019080838360005b83811015610252578082015181840152602081019050610237565b50505050905090810190601f16801561027f5780820380516001836020036101000a031916815260200191505b50838103825284818151815260200191508051906020019080838360005b838110156102b857808201518184015260208101905061029d565b50505050905090810190601f1680156102e55780820380516001836020036101000a031916815260200191505b5097505050505050505060405180910390f35b34801561030457600080fd5b5061030d610bbc565b6040518080602001828103825283818151815260200191508051906020019080838360005b8381101561034d578082015181840152602081019050610332565b50505050905090810190601f16801561037a5780820380516001836020036101000a031916815260200191505b509250505060405180910390f35b34801561039457600080fd5b5061039d610c5a565b604051808215151515815260200191505060405180910390f35b3480156103c357600080fd5b5061046e600480360381019080803590602001908201803590602001908080601f0160208091040260200160405190810160405280939291908181526020018383808284378201915050505050509192919290803590602001908201803590602001908080601f016020809104026020016040519081016040528093929190818152602001838380828437820191505050505050919291929080359060200190929190505050610c6d565b005b34801561047c57600080fd5b50610485610f8d565b604051808273ffffffffffffffffffffffffffffffffffffffff1673ffffffffffffffffffffffffffffffffffffffff16815260200191505060405180910390f35b6104ef6004803603810190808035906020019092919080359060200190929190505050610fb2565b005b60018054600181600116156101000203166002900480601f0160208091040260200160405190810160405280929190818152602001828054600181600116156101000203166002900480156105875780601f1061055c57610100808354040283529160200191610587565b820191906000526020600020905b81548152906001019060200180831161056a57829003601f168201915b505050505081565b6000809054906101000a900473ffffffffffffffffffffffffffffffffffffffff1673ffffffffffffffffffffffffffffffffffffffff163373ffffffffffffffffffffffffffffffffffffffff16141515610679576040517f08c379a00000000000000000000000000000000000000000000000000000000081526004018080602001828103825260358152602001807f5468697320616374696f6e2063616e206f6e6c7920626520706572666f726d6581526020017f64206279207468652073746f7265206f776e65722e000000000000000000000081525060400191505060405180910390fd5b600560009054906101000a900460ff1615600560006101000a81548160ff0219169083151502179055507fbbe2df23d8e4c62058ef6f54ed03e99b5f38d650d80f449e5c3dff7eb5fc3c90600560009054906101000a900460ff16604051808215151515815260200191505060405180910390a1565b6000809054906101000a900473ffffffffffffffffffffffffffffffffffffffff1673ffffffffffffffffffffffffffffffffffffffff163373ffffffffffffffffffffffffffffffffffffffff161415156107d9576040517f08c379a00000000000000000000000000000000000000000000000000000000081526004018080602001828103825260358152602001807f5468697320616374696f6e2063616e206f6e6c7920626520706572666f726d6581526020017f64206279207468652073746f7265206f776e65722e000000000000000000000081525060400191505060405180910390fd5b6000809054906101000a900473ffffffffffffffffffffffffffffffffffffffff1673ffffffffffffffffffffffffffffffffffffffff166108fc3073ffffffffffffffffffffffffffffffffffffffff16319081150290604051600060405180830381858888f19350505050158015610857573d6000803e3d6000fd5b50565b816000610872826004546112f890919063ffffffff16565b1015151561090e576040517f08c379a00000000000000000000000000000000000000000000000000000000081526004018080602001828103825260278152602001807f54686973206974656d20646f6573206e6f7420657869737420696e207468697381526020017f2073746f72652e0000000000000000000000000000000000000000000000000081525060400191505060405180910390fd5b6000809054906101000a900473ffffffffffffffffffffffffffffffffffffffff1673ffffffffffffffffffffffffffffffffffffffff163373ffffffffffffffffffffffffffffffffffffffff161415156109f8576040517f08c379a00000000000000000000000000000000000000000000000000000000081526004018080602001828103825260358152602001807f5468697320616374696f6e2063616e206f6e6c7920626520706572666f726d6581526020017f64206279207468652073746f7265206f776e65722e000000000000000000000081525060400191505060405180910390fd5b816003600085815260200190815260200160002060010181905550827f2ed03aaee7348d9d0c7122fad9bd3e92af7a2581ea25366a7355d4d20c62d97d836040518082815260200191505060405180910390a2505050565b60045481565b6003602052806000526040600020600091509050806000015490806001015490806002015490806003018054600181600116156101000203166002900480601f016020809104026020016040519081016040528092919081815260200182805460018160011615610100020316600290048015610b145780601f10610ae957610100808354040283529160200191610b14565b820191906000526020600020905b815481529060010190602001808311610af757829003601f168201915b505050505090806004018054600181600116156101000203166002900480601f016020809104026020016040519081016040528092919081815260200182805460018160011615610100020316600290048015610bb25780601f10610b8757610100808354040283529160200191610bb2565b820191906000526020600020905b815481529060010190602001808311610b9557829003601f168201915b5050505050905085565b60028054600181600116156101000203166002900480601f016020809104026020016040519081016040528092919081815260200182805460018160011615610100020316600290048015610c525780601f10610c2757610100808354040283529160200191610c52565b820191906000526020600020905b815481529060010190602001808311610c3557829003601f168201915b505050505081565b600560009054906101000a900460ff1681565b610c75611378565b6000809054906101000a900473ffffffffffffffffffffffffffffffffffffffff1673ffffffffffffffffffffffffffffffffffffffff163373ffffffffffffffffffffffffffffffffffffffff16141515610d5f576040517f08c379a00000000000000000000000000000000000000000000000000000000081526004018080602001828103825260358152602001807f5468697320616374696f6e2063616e206f6e6c7920626520706572666f726d6581526020017f64206279207468652073746f7265206f776e65722e000000000000000000000081525060400191505060405180910390fd5b836020815111151515610d7157600080fd5b836020815111151515610d8357600080fd5b60a060405190810160405280610da5600160045461131990919063ffffffff16565b8152602001600081526020018581526020018781526020018681525092508260036000610dde600160045461131990919063ffffffff16565b81526020019081526020016000206000820151816000015560208201518160010155604082015181600201556060820151816003019080519060200190610e269291906113a8565b506080820151816004019080519060200190610e439291906113a8565b50905050610e5d600160045461131990919063ffffffff16565b60048190555082600001517f4e567c1c0c81dc187c8338cf00f9d1643ddb73bb113952f87c1d33276657f4b4846060015185608001518660400151604051808060200180602001848152602001838103835286818151815260200191508051906020019080838360005b83811015610ee2578082015181840152602081019050610ec7565b50505050905090810190601f168015610f0f5780820380516001836020036101000a031916815260200191505b50838103825285818151815260200191508051906020019080838360005b83811015610f48578082015181840152602081019050610f2d565b50505050905090810190601f168015610f755780820380516001836020036101000a031916815260200191505b509550505050505060405180910390a2505050505050565b6000809054906101000a900473ffffffffffffffffffffffffffffffffffffffff1681565b816000610fca826004546112f890919063ffffffff16565b10151515611066576040517f08c379a00000000000000000000000000000000000000000000000000000000081526004018080602001828103825260278152602001807f54686973206974656d20646f6573206e6f7420657869737420696e207468697381526020017f2073746f72652e0000000000000000000000000000000000000000000000000081525060400191505060405180910390fd5b828260006110938260036000868152602001908152602001600020600101546112f890919063ffffffff16565b10151515611109576040517f08c379a000000000000000000000000000000000000000000000000000000000815260040180806020018281038252601a8152602001807f4e6f7420656e6f75676820696e76656e746f7279206c6566742e00000000000081525060200191505060405180910390fd5b848461113481600360008581526020019081526020016000206002015461133a90919063ffffffff16565b34101515156111ab576040517f08c379a000000000000000000000000000000000000000000000000000000000815260040180806020018281038252601a8152602001807f4e6f7420656e6f7567682045746865722070726f76696465642e00000000000081525060200191505060405180910390fd5b600560009054906101000a900460ff16151561123d576111ea86600360008a8152602001908152602001600020600101546112f890919063ffffffff16565b6003600089815260200190815260200160002060010181905550867f7a53680a44b794c8ef9f1d38676e09a22df8a9bae6949d9da9d275b78d8d74d6876040518082815260200191505060405180910390a25b61126681600360008581526020019081526020016000206002015461133a90919063ffffffff16565b3411156112ef573373ffffffffffffffffffffffffffffffffffffffff166108fc6112c26112b384600360008881526020019081526020016000206002015461133a90919063ffffffff16565b346112f890919063ffffffff16565b9081150290604051600060405180830381858888f193505050501580156112ed573d6000803e3d6000fd5b505b50505050505050565b60008083831115151561130a57600080fd5b82840390508091505092915050565b600080828401905083811015151561133057600080fd5b8091505092915050565b600080600084141561134f5760009150611371565b828402905082848281151561136057fe5b0414151561136d57600080fd5b8091505b5092915050565b60a06040519081016040528060008152602001600081526020016000815260200160608152602001606081525090565b828054600181600116156101000203166002900490600052602060002090601f016020900481019282601f106113e957805160ff1916838001178555611417565b82800160010185558215611417579182015b828111156114165782518255916020019190600101906113fb565b5b5090506114249190611428565b5090565b61144a91905b8082111561144657600081600090555060010161142e565b5090565b905600a165627a7a72305820d396cb2f152f8eb4d7579ef5f69100696e7e382523f378cb90b9f840a9a7842c0029",
  "source": "pragma solidity >= 0.4 .21 < 0.6 .0;\r\n\r\nimport \"../node_modules/openzeppelin-solidity/contracts/math/SafeMath.sol\";\r\n\r\n\r\n/** @title Marketplace contract. */\r\ncontract Store {\r\n  using SafeMath\r\n  for uint256;\r\n\r\n  address public owner;\r\n  string public name;\r\n  string public description;\r\n  mapping(uint256 => Product) public productsBySku;\r\n  uint256 public newestProductSku;\r\n  bool public stopped = false;\r\n\r\n\r\n  struct Product {\r\n    uint sku;\r\n    uint inventoryCount;\r\n    uint price;\r\n    string name;\r\n    string description;\r\n  }\r\n\r\n  event NewProductAdded(string name, string description, uint256 indexed sku, uint256 price);\r\n  event InventoryCountUpdated(uint256 indexed sku, uint256 newInventoryCount);\r\n  event PurchaseMade(uint256 indexed sku, uint256 quantity);\r\n  event ContractStateToggled(bool isStopped);\r\n\r\n  modifier isOwner() {\r\n    require(\r\n      msg.sender == owner,\r\n      \"This action can only be performed by the store owner.\");\r\n    _;\r\n  }\r\n\r\n  modifier stringLengthOkay(string memory str) {\r\n    require(bytes(str).length <= 32);\r\n    _;\r\n  }\r\n\r\n  modifier skuExists(uint256 sku) {\r\n    require(\r\n      newestProductSku.sub(sku) >= 0,\r\n      \"This item does not exist in this store.\");\r\n    _;\r\n  }\r\n\r\n  modifier enoughInventory(uint256 sku, uint256 quantity) {\r\n    require(\r\n      productsBySku[sku].inventoryCount.sub(quantity) >= 0,\r\n      \"Not enough inventory left.\");\r\n    _;\r\n  }\r\n\r\n  modifier enoughEthSent(uint256 sku, uint256 quantity) {\r\n    require(\r\n      msg.value >= productsBySku[sku].price.mul(quantity),\r\n      \"Not enough Ether provided.\");\r\n\r\n    _;\r\n\r\n    if (msg.value > productsBySku[sku].price.mul(quantity)) {\r\n      msg.sender.transfer(msg.value.sub(productsBySku[sku].price.mul(quantity)));\r\n    }\r\n  }\r\n\r\n  modifier stopInEmergency {\r\n    if (!stopped) {\r\n      _;\r\n    }\r\n  }\r\n\r\n  modifier onlyInEmergency {\r\n    if (stopped) {\r\n      _;\r\n    }\r\n  }\r\n\r\n  constructor(address sender, string memory storeName, string memory storeDescription)\r\n  public\r\n  stringLengthOkay(storeName)\r\n  stringLengthOkay(storeDescription) {\r\n    owner = sender;\r\n    name = storeName;\r\n    description = storeDescription;\r\n    newestProductSku = 0;\r\n  }\r\n\r\n  /** @dev Owner can toggle contract in case of emergency.\r\n   */\r\n  function toggleContractActive()\r\n  public isOwner {\r\n    stopped = !stopped;\r\n    emit ContractStateToggled(stopped);\r\n  }\r\n\r\n  /** @dev Owner can withdraw any funds the store has earned by selling products.\r\n   */\r\n  function withdraw() public isOwner {\r\n    owner.transfer(address(this).balance);\r\n  }\r\n\r\n\r\n  /** @dev Owner can add products to his/her store to sell.\r\n   * @param newProductName The name of the product.\r\n   * @param newProductDescription The description of the product.\r\n   * @param newProductPrice The price of the product.\r\n   */\r\n  function addNewProduct(string memory newProductName, string memory newProductDescription, uint256 newProductPrice)\r\n  public\r\n  isOwner\r\n  stringLengthOkay(newProductName)\r\n  stringLengthOkay(newProductDescription) {\r\n    Product memory newProduct = Product({\r\n      sku: newestProductSku.add(1),\r\n      inventoryCount: 0,\r\n      price: newProductPrice,\r\n      name: newProductName,\r\n      description: newProductDescription\r\n    });\r\n\r\n    productsBySku[newestProductSku.add(1)] = newProduct;\r\n    newestProductSku = newestProductSku.add(1);\r\n    emit NewProductAdded(newProduct.name, newProduct.description, newProduct.sku, newProduct.price);\r\n  }\r\n\r\n  /** @dev Owner can update the inventory for a given product.\r\n   * @param sku The sku of the product.\r\n   * @param newInventoryCount The updated inventory count of the product.\r\n   */\r\n  function updateInventoryCount(uint256 sku, uint256 newInventoryCount)\r\n  public\r\n  skuExists(sku)\r\n  isOwner {\r\n\r\n    productsBySku[sku].inventoryCount = newInventoryCount;\r\n    emit InventoryCountUpdated(sku, newInventoryCount);\r\n  }\r\n\r\n  /** @dev Shoppers call this to purchase a given product from the store.\r\n   * @param sku The sku of the product.\r\n   * @param quantity The number of inventory of the product the user is buying.\r\n   */\r\n  function purchaseProduct(uint256 sku, uint256 quantity)\r\n  public\r\n  payable\r\n  skuExists(sku)\r\n  enoughInventory(sku, quantity)\r\n  enoughEthSent(sku, quantity)\r\n  stopInEmergency {\r\n\r\n    productsBySku[sku].inventoryCount = productsBySku[sku].inventoryCount.sub(quantity);\r\n    emit PurchaseMade(sku, quantity);\r\n  }\r\n  /** @dev Default payable function.\r\n   */\r\n  function () external payable {}\r\n}",
  "sourcePath": "C:\\Users\\Nikhil\\Documents\\GitHub\\ConsensysAcademy-Final-Project\\contracts\\Store.sol",
  "compiler": {
    "name": "solc",
    "version": "0.4.25+commit.59dbf8f1.Emscripten.clang"
  },
  "schemaVersion": "2.0.2",
  "updatedAt": "2019-01-24T04:49:46.791Z"
}